:10000000C2C100000C949F1F0C94741F0C94491FD4
:100010000C941E1F0C94F31E0C94C81E0C949D1E71
:100020000C94721EE1C10000DFC10000DDC10000C0
:10003000DBC10000D9C10000D7C10000D5C100005C
:10004000D3C100000C94D521CFC10000CDC1000068
:10005000CBC10000C9C10000C7C100000C94281E1C
:10006000C3C100000C94081C0C94DF1BBDC1000030
:10007000BBC10000B9C10000B7C10000B5C100009C
:100080000C94A821B1C10000AFC10000ADC10000B7
:10009000ABC10000A9C10000A7C100000C94CA2395
:1000A000A3C10000A1C100000C947B219DC10000F0
:1000B0009BC1000099C1000097C100000C944E2123
:1000C00093C1000091C100008FC100008DC10000EC
:1000D0008BC1000089C1000087C1000085C10000FC
:1000E00083C10000591C5C1C4B1C4F1C551C931CED
:1000F000601C641C6A1C6E1C721C781C7C1C801C9E
:10010000931C861C8A1C8E1C251D2A1D2F1D391D23
:10011000431DBC1D4D1D551D5D1D671D711D7B1DA6
:100120008A1D941DBC1D9E1DA81DB21D4E414E4929
:100130004E495459494E46CDCCCC3D0AD7233C17A5
:10014000B7D13877CC2B329595E6241FB14F0A00F2
:100150000020410000C84200401C4620BCBE4CCAE2
:100160001B0E5AAEC59D7400407A10F35A00A0725F
:100170004E18090010A5D4E80000E87648170000E2
:10018000E40B54020000CA9A3B000000E1F50500B0
:100190000080969800000040420F000000A08601F9
:1001A000000000102700000000E8030000000064C9
:1001B00000000000000A0000000000010000000034
:1001C000002C76D888DC674F0823DFC1DFAE59E109
:1001D000B1B796E5E3E453C63AE651997696E8E678
:1001E000C28426EB898C9B62ED407C6FFCEFBC9C4B
:1001F0009F40F2BAA56FA5F490055A2AF75C936B5D
:100200006CF9676DC11BFCE0E40D47FEF520E6B517
:1002100000D0ED902E0300943577050080841E08F1
:100220000000204E0A000000C80C333333330F980F
:100230006E12831141EF8D2114893BE65516CFFED6
:10024000E6DB18D1844B381BF77C1D901DA4BBE462
:1002500024203284725E228100C9F124ECA1E53DA4
:100260002700002100240027002A002D0030003341
:100270000001010000040107010A0100002200251D
:100280000028002B002E0031003400020100000580
:100290000108010B01000020002300260029002C8A
:1002A000002F0032000001000003010601090105D2
:1002B000050505070508080808020202020A0A08DF
:1002C0000804040404010101010101010103030305
:1002D0000303030303040707070C0C0C0C0C0C0CA2
:1002E0000C0202020206060606060606060B0B0BA9
:1002F0000B0B0B0B0B0102102020080810204010E4
:1003000020408002010201080402010102040810D9
:1003100020408080402010080402018004020180F7
:100320004020100804020108040201010204081020
:10033000204080010204081020408000000A0B02C7
:10034000090C0D0E08070304010000000000000066
:10035000000000000000000000000000000000009D
:10036000000000000000001211100000000000005A
:10037000000000000000000000000000000000007D
:1003800000000B3B033B11241FBECFEFD1E2DEBFC9
:10039000CDBF00E00CBF15E1A0E0B2E0E0EFFBE86C
:1003A00000E00BBF02C007900D92A63EB107D9F73F
:1003B0002DE1A6EEB5E101C01D92AA3EB207E1F71C
:1003C00011E0C2ECD1E000E006C021970109802FC6
:1003D000FE010E94A743C13CD10780E00807A9F7AE
:1003E0000E94D5280C94E7450BCE809191199091ED
:1003F0009219A0919319B09194190196A11DB11D64
:100400008093911990939219A0939319B093941992
:10041000089508950C945B448F929F92AF92BF927F
:10042000CF92DF92EF92FF920F931F93CF93DF93C0
:100430002EE1289FF001299FF00D1124E65EFD4F6B
:10044000208D211104C0CC24C394D12C03C03BE0E7
:10045000C32ED12C46E1489F9001499F300D1124B5
:10046000A901465F594E7A0122E4289F8001299F05
:10047000100D11240A51194E60E070E040E050E088
:10048000C0E0D0E0F801E60FF71F0480F581E02D11
:10049000DA01AA0FBB1FAE0DBF1D2D913C912E1B83
:1004A0003F0B37FF0AC0E73EF34039F03195219505
:1004B0003109C217D3070CF4E9014F5F5F4F6A5F40
:1004C0007F4FC416D506F1F620916B1B2223F1F164
:1004D00020916C0330916D032C173D07BCF54EE164
:1004E000489F9001499F300D1124C901845E9D4FA2
:1004F0000E94F727812C912CA12CB12CF501EE0F35
:10050000FF1FEE0DFF1DD801A80DB91D808191813F
:1005100014962D913C9115976AE070E0821B930B25
:100520000E94D82784E390E10E94F7274FEFA41A96
:10053000B40A56E0850E911CCA14DB04F9F68CE966
:1005400099E00E94F727CE010E94EB27CE01DF91B0
:10055000CF911F910F91FF90EF90DF90CF90BF90C0
:10056000AF909F908F9008958F929F92AF92BF927D
:10057000CF92DF92EF92FF920F931F93CF93DF936F
:100580002EE1289FF001299FF00D1124E65EFD4F1A
:10059000208D211104C0CC24C394D12C03C03BE096
:1005A000C32ED12C46E1489F9001499F300D112464
:1005B000A901465F594E7A0122E4289F8001299FB4
:1005C000100D11240A51194E60E070E040E050E037
:1005D000C0E0D0E0F801E60FF71F0480F581E02DC0
:1005E000DA01AA0FBB1FAE0DBF1D2D913C912E1B32
:1005F0003F0B121613063CF4E73EF34021F0C217FE
:10060000D3070CF4E9014F5F5F4F6A5F7F4FC41659
:10061000D50601F720916B1B2223F1F120916E0387
:1006200030916F032C173D07BCF54EE1489F9001B8
:10063000499F300D1124C901845E9D4F0E94F72708
:10064000812C912CA12CB12CF501EE0FFF1FEE0D8A
:10065000FF1DD801A80DB91D8081918114962D919F
:100660003C9115976AE070E0821B930B0E94D8279B
:1006700084E390E10E94F7274FEFA41AB40A56E0F2
:10068000850E911CCA14DB04F9F68BE899E00E94F0
:10069000F727CE010E94EB27CE01DF91CF911F916A
:1006A0000F91FF90EF90DF90CF90BF90AF909F9011
:1006B0008F90089508958F929F92AF92BF92CF929C
:1006C000DF92EF92FF920F931F93CF93DF93CDB7FB
:1006D000DEB762970FB6F894DEBF0FBECDBF8C01B8
:1006E00065EE75E1CE010D960E94AE198EE1809FF8
:1006F000F001819FF00D1124E65EFD4F808D811188
:1007000004C0EE24E394F12C03C09BE0E92EF12C0D
:1007100068E27EE0CE0101960E94AE19BE016F5FD5
:100720007F4FCE0107960E942119B801CE0107968E
:100730000E9475176FEC78E00E94A917B7010E941C
:1007400075176FEC78E00E94A917BC01CE010D96D9
:100750000E941F18CE0107960E941C19CE01019617
:100760000E941C1986E1809F4001819F900C1124FA
:1007700082E4809F5001819FB00C1124C12CD12CA8
:1007800000E010E0F801EE0FFF1FE80DF91DE65F35
:10079000F94ED601AA0DBB1DAA51B94E60817181D7
:1007A00014968D919C911597681B790BCE0101963B
:1007B0000E94F417BE016F5F7F4FCE0107960E9423
:1007C00021196FEC78E0CE0107960E94A917FC0171
:1007D0004481558160817181CE010D960E9401177F
:1007E000CE0107960E941C19CE0101960E941C1989
:1007F0000F5F1F4FF6E0CF0ED11CE016F10611F689
:10080000CE010D960E942A28CE010D960E941C1939
:1008100062960FB6F894DEBF0FBECDBFDF91CF91C9
:100820001F910F91FF90EF90DF90CF90BF90AF900E
:100830009F908F9008958F929F92AF92BF92CF9288
:10084000DF92EF92FF920F931F93CF93DF93CDB779
:10085000DEB7C855D1090FB6F894DEBF0FBECDBFC5
:1008600065EE75E1CE01835B9F4F0E94AE1965EE88
:1008700075E1CE018D5A9F4F0E94AE1984EE9BE127
:100880000E94DB1A1816190674F411E00BE384EECB
:100890009BE10E94DB1A181619062CF480910C1BA0
:1008A000882309F4BEC580910C1B882309F49BC5DD
:1008B0001091CC1A8BEC810F8230F0F1193309F4CE
:1008C00057C36DE27EE0CE0101960E94AE19BE01D3
:1008D0006F5F7F4FCE018F5B9F4F0E94211928963B
:1008E0001FAF289729961FAE299741E050E0BE011F
:1008F000695B7F4FCE018F5B9F4F0E940117811173
:1009000005C0CE018F5B9F4F0E942E1761E47EE0F1
:10091000CE018F5B9F4F0E94A9176CEC7AE10E9479
:10092000A9170E942A28CE018F5B9F4F0E941C1995
:10093000CE0101960E941C19173309F449C1FCF439
:10094000133309F4BEC03CF4113309F442C012332E
:1009500009F480C03BC5153309F4EBC00CF00EC19F
:1009600069E47EE0CE0101960E94AE19BE016F5F80
:100970007F4F81E00E94C219CE010196FDC312365D
:1009800009F4FDC34CF4193309F4F2C20CF48EC11E
:10099000113609F4F1C21AC5163609F4C0C4163767
:1009A00009F403C5143609F011C56CEC7AE1CE01E7
:1009B00001960E94D1456FEC78E0CE0101960E942D
:1009C000893C02E613E09AE6C92E93E0D92E78011D
:1009D00082C46CEC7AE1CE0101960E94D1456FECA5
:1009E00078E0CE0101960E94893C6FEC78E080E0CF
:1009F00090E00E94893C0E94463C7C016FEC78E0CC
:100A000080E090E00E94893C0E94463C6C016FECC3
:100A100078E080E090E00E94893C0E94463C5C01C6
:100A20006FEC78E080E090E00E94893C0E94463CB8
:100A30004C016FEC78E080E090E00E94893C0E94DD
:100A4000463C01E0019709F000E09401A501B601E0
:100A5000C7012AC16CEC7AE1CE0101960E94D14512
:100A60006FEC78E0CE0101960E94893C6FEC78E053
:100A700080E090E00E94893C0E94463C7C016FEC43
:100A800078E080E090E00E94893C0E94463C6C0146
:100A90006FEC78E080E090E00E94893C0E94463C48
:100AA00001E0019709F000E082E38E9D90018F9DA7
:100AB000300D11242C53364FA701B60189E090E088
:100AC00036C06CEC7AE1CE0101960E94D1456FEC04
:100AD00078E0CE0101960E94893C6FEC78E080E0DE
:100AE00090E00E94893C0E94463C7C016FEC78E0DB
:100AF00080E090E00E94893C0E94463C6C016FECD3
:100B000078E080E090E00E94893C0E94463C01E051
:100B1000019709F000E082E38E9D90018F9D300DDA
:100B200011242C53364FA701B6018AE090E0ECD691
:100B300058C488E79DE10E94011568E77DE1CE0178
:100B400001960E945E28CE0101960E942919CE01CD
:100B500001960E94C9288DEA9DE10E9401156DEA67
:100B60007DE1CE0101960E945E28CE0101960E9491
:100B70002919CE0101960E94C92833C46CEC7AE190
:100B8000CE01835B9F4F0E94DF1724E030E041E0FD
:100B900050E0BE01635B7F4FCE0101960E94651A53
:100BA00089819A81009729F00E94633C6B017C0146
:100BB00003C0C12CD12C7601CE0101960E941C19D4
:100BC00087E69EE00E94F7276AE070E0C601DEC07B
:100BD0006CEC7AE1CE0101960E94D1456FEC78E091
:100BE000CE0101960E94893C6FEC78E080E090E0B5
:100BF0000E94893C0E94463C8C019093750380932F
:100C000074036CE87EE0CE018F5B9F4F0E94AE19AB
:100C1000BE016F5B7F4FCE01895B9F4F0E94211900
:100C2000B801CE01895B9F4F0E9475176FE97EE086
:100C30000E94A9176CE172E00E94A9170E942A285D
:100C4000CE01895B9F4F0E941C19CE018F5B9F4F85
:100C50000E941C192091740330917503C9010397F8
:100C6000039718F486E090E002C081E090E0A901CB
:100C7000465051094230510510F484E090E028506C
:100C800031092230310510F485E090E020914803CD
:100C90003091490343E0220F331F4A95E1F701E009
:100CA00040ED57E060E070E0EAD69BC36CEC7AE17F
:100CB000CE0101960E94D1456FEC78E0CE010196FD
:100CC0000E94893C6FEC78E080E090E00E94893CD3
:100CD0000E94463C9093CB1A8093CA1A0E947726B2
:100CE0009093C91A8093C81A8EEA9EE00E94F72753
:100CF0006AE070E08091CA1A9091CB1A0E94D827BE
:100D000081E696E00E94F7276AE070E08091C81AB9
:100D10009091C91A0E94D8270E94752768EC70E04C
:100D200080E090E00E94E41D0091CA1A1091CB1A55
:100D300089EC9EE00E94F7276AE070E0C8010E94FB
:100D4000D8270E947527033A23E012071CF08DED87
:100D50009EE033C3083582E018071CF480E09FE072
:100D60002CC30E9477269093C91A8093C81A88557D
:100D700092408B34914068F083E29FE00E94F72715
:100D80006AE070E08091C81A9091C91A0E94D82731
:100D900026C30E9477267C019093C91A8093C81AB3
:100DA0009093C71A8093C61A0E941C1E6093C21AA1
:100DB0007093C31A8093C41A9093C51A0E941C1E84
:100DC000DC01CB0188519C4FAF4FBF4F8093BE1ABF
:100DD0009093BF1AA093C01AB093C11AE016F106FF
:100DE0000CF062C08EE49FE00E94F82780917603A9
:100DF00090917703892BD1F01092770310927603AC
:100E000089E49FE00E94F82760E08EE10E94941C34
:100E100068EE73E080E090E00E94E41D61E08AE10A
:100E20000E94941C61E08BE10E94941C609150032D
:100E30007091510382E00E94FE1C60914E037091FC
:100E40004F0383E00E94FE1C64E670E080E090E0C7
:100E50000E94E41D0E941C1EC090C21AD090C31AAA
:100E6000E090C41AF090C51ADC01CB018C199D09E1
:100E7000AE09BF0988389341A105B10508F09FC3A9
:100E80002091C81A3091C91A8091CA1A9091CB1A30
:100E9000281739070CF093C380917603909177035C
:100EA000892B09F4E9C28BC384EB9FE00E94F827E9
:100EB00080917603909177030197E1F081E090E0D3
:100EC00090937703809376038FEB9FE00E94F8273F
:100ED00060E08EE10E94941C62E370E080E090E0AC
:100EE0000E94E41D60E08AE10E94941C60E08BE1B6
:100EF0000E94941C60914C0370914D0382E00E940B
:100F0000FE1C60914A0370914B0383E00E94FE1C1B
:100F100064E670E080E090E00E94E41D0E941C1EE8
:100F2000C090C21AD090C31AE090C41AF090C51AAB
:100F3000DC01CB018C199D09AE09BF0988389341AA
:100F4000A105B10508F002C42091C81A3091C91A50
:100F50008091CA1A9091CB1A821793070CF0F6C3AE
:100F60008091760390917703019709F0EFC34CC30A
:100F700081E08093971935C26CEC7AE1CE0101963D
:100F80000E94D1456FEC78E0CE0101960E94893C29
:100F90006FEC78E080E090E00E94893C0E94463C43
:100FA00090936F0380936E036FEC78E080E090E0A5
:100FB0000E94893C0E94463C90936D0380936C0391
:100FC0006FEC78E080E090E00E94893C0E94463C13
:100FD0008B3091052CF4909347038093460330C0E7
:100FE0008AE090E0909347038093460361EF7FE0AF
:100FF000CE018F5B9F4F0E94AE19BE016F5B7F4F8A
:10100000CE01895B9F4F0E9421196AE070E0CE01FA
:10101000895B9F4F0E94751769E070E10E94A917D4
:101020006AE070E00E9475170E942A28CE01895B51
:101030009F4F0E941C19CE018F5B9F4F0E941C196D
:101040006FEC78E080E090E00E94893C0E94463C92
:1010500090931902809318026FEC78E080E090E0A2
:101060000E94893C0E94463C909349038093480328
:101070006FEC78E080E090E00E94893C0E94463C62
:1010800090936B0380936A0300916C0310916D033E
:10109000E0906E03F0906F036EE270E1CE018F5B23
:1010A0009F4F0E94AE19BE016F5B7F4FCE01895BDF
:1010B0009F4F0E94211967E370E1CE01895B9F4F2A
:1010C0000E94A917B7010E94751767E470E10E949A
:1010D000A917B8010E9475170E942A28CE01895BC2
:1010E0009F4F0E941C19CE018F5B9F4F0E941C19BD
:1010F00000916A0310916B03E0904803F09049035C
:10110000C0901802D0901902A0904603B0904703F7
:1011100064E570E1CE018F5B9F4F0E94AE19BE0166
:101120006F5B7F4FCE01895B9F4F0E942119B501F4
:10113000CE01895B9F4F0E94751764E770E10E94A2
:10114000A917B6010E94751763E970E10E94A917FB
:10115000B7010E94751762EB70E10E94A917B801F0
:101160000E9475170E942A28CE01895B9F4F0E941A
:101170001C19CE018F5B9F4F0E941C1932C16CEC71
:101180007AE1CE01835B9F4F0E94DF1729E030E0B8
:1011900042E050E0BE01635B7F4FCE0101960E94AA
:1011A000651ACE0101960E94F61660935E03709355
:1011B0005F038093600390936103CE0101960E94C8
:1011C0001C1921E130E04AE050E0BE01635B7F4F33
:1011D000CE0101960E94651ACE0101960E94F61674
:1011E00060935A0370935B0380935C0390935D0359
:1011F000CE0101960E941C1927E130E042E150E047
:10120000BE01635B7F4FCE0101960E94651ACE013D
:1012100001960E94F61660935603709357038093CD
:10122000580390935903CE0101960E941C192DE199
:1012300030E048E150E0BE01635B7F4FCE01019694
:101240000E94651ACE0101960E94F6166093520321
:10125000709353038093540390935503CE010196EA
:101260000E941C198FEC90E10E94F72760915E03A9
:1012700070915F0380916003909161030E94D21688
:1012800080EF90E10E94F72760915A0370915B0311
:1012900080915C0390915D030E94D2168BEF90E1E8
:1012A0000E94F7276091560370915703809158036D
:1012B000909159030E94D21684E191E10E94F72790
:1012C00060915203709153038091540390915503A0
:1012D0000E94D21684C06FEC78E080E090E00E941B
:1012E000893C0E94463CF701819391937F01CE1681
:1012F000DF0689F78EE291E10E94F7276AE070E04D
:10130000F801819191918F010E94D8278FEC98E08C
:101310000E94F727F3E00A361F0781F760C06CECE4
:101320007AE1CE0101960E94D1456FEC78E0CE01C2
:1013300001960E94893C6FEC78E080E090E00E948A
:10134000893C0E94463C8C0183E591E10E94F8278C
:101350008BE0809F6001819FD00C112486E1809FEB
:101360007001819FF00C112400E010E06FEC78E038
:1013700080E090E00E94893C0E94463CB82EA92E55
:10138000682FC601800F911F0E941742F801EE0FCF
:10139000FF1FEE0DFF1DE65FF94EB082A1820F5FC9
:1013A0001F4F0B30110511F71CC08091CE1A8033EE
:1013B00039F410926B1B81E791E10E94F82711C06C
:1013C00081E080936B1B84E891E1F7CF86E991E19E
:1013D0000E94F727612F84EE9BE10E94121B0E945E
:1013E000752710920C1BCE018D5A9F4F0E941C191D
:1013F000CE01835B9F4F0E941C19C85ADF4F0FB666
:10140000F894DEBF0FBECDBFDF91CF911F910F913A
:10141000FF90EF90DF90CF90BF90AF909F908F9014
:10142000089584EE9BE10E94B91AE091BD1A8A30BA
:1014300071F0AE2FB0E0A453B54E8C93EF5FEC3358
:1014400018F4E093BD1A23CA0093BD1A20CAF0E035
:10145000E453F54E10821092BD1A10930C1B10939A
:1014600097190E941C1E6093981970939919809384
:101470009A1990939B190BCA88E79DE10E94011568
:10148000C090951DD090961DE090971DF090981DEE
:1014900020E030E040E85EE3C701B6010E948043EF
:1014A0001816C4F480914E0390914F03863E910527
:1014B0002CF4039690934F0380934E038091500336
:1014C00090915103873991052CF003979093510324
:1014D0008093500320E030E040E85EEBC701B601A6
:1014E0000E94F34087FF18C08091500390915103F0
:1014F000863E91052CF403969093510380935003FC
:1015000080914E0390914F03873991052CF00397FA
:1015100090934F0380934E03609150037091510359
:1015200082E00E94FE1C60914E0370914F0383E0A5
:101530000E94FE1C62E370E080E090E00E94E41DE7
:101540000E9477268C019093C91A8093C81A0E9432
:101550001C1EC090BE1AD090BF1AE090C01AF09026
:10156000C11ADC01CB018C199D09AE09BF09853F69
:101570009140A105B1050CF46DCC8091C61A9091F3
:10158000C71A801B910B0996439730F487E59FE0BB
:101590000E94F8270E9408278091C81A9091C91AC2
:1015A0009093C71A8093C61A0E941C1E6093BE1A9D
:1015B0007093BF1A8093C01A9093C11A4BCC0E94AB
:1015C0001C1EDC01CB018C199D09AE09BF098838AE
:1015D0009341A105B10520F08CE79FE00E94F72719
:1015E0002091C81A3091C91A8091CA1A9091CB1AC9
:1015F0002817390724F08BE99FE00E94F7270E9403
:1016000075270E940827EDCE88E79DE10E9401150D
:10161000C090951DD090961DE090971DF090981D5C
:1016200020E030E040E85EE3C701B6010E9480435D
:101630001816C4F480914C0390914D03863E910599
:101640002CF4039690934D0380934C0380914A03AE
:1016500090914B03873991052CF0039790934B039E
:1016600080934A0320E030E040E85EEBC701B6011A
:101670000E94F34087FF18C080914A0390914B036A
:10168000863E91052CF4039690934B0380934A0376
:1016900080914C0390914D03873991052CF003976D
:1016A00090934D0380934C0360914C0370914D03D4
:1016B00082E00E94FE1C60914A0370914B0383E01C
:1016C0000E94FE1C62E370E080E090E00E94E41D56
:1016D0000E9477268C019093C91A8093C81A0E94A1
:1016E0001C1EC090BE1AD090BF1AE090C01AF09095
:1016F000C11ADC01CB018C199D09AE09BF09853FD8
:101700009140A105B1050CF409CC8091C61A9091C5
:10171000C71A801B910B029734F48AEC9FE00E9459
:10172000F8270E9408278091C81A9091C91A9093AF
:10173000C71A8093C61A0E941C1E6093BE1A70932B
:10174000BF1A8093C01A9093C11AE8CB0E941C1E46
:10175000DC01CB018C199D09AE09BF098838934182
:10176000A105B10520F08CE79FE00E94F7272091AA
:10177000C81A3091C91A8091CA1A9091CB1A2817A9
:1017800039070CF03CCF37CFCF92DF92EF92FF9228
:101790000F931F93CF93DF938C01C62F10927C1968
:1017A00010927D1910927E1910927F191092801953
:1017B00010928119E2E8F9E1119289E1EC38F80719
:1017C000D9F780916B1B882309F493C085EB91E1D5
:1017D0000E94F72788EC91E10E94F7276AE070E009
:1017E00080917403909175030E94D82787ED91E151
:1017F0000E94F727F801EE0FFF1FE258FC4F80818F
:1018000091810E94F72780EF91E10E94F727CC2376
:1018100009F461C08CE0809F7001819FF00C11245D
:10182000C0E0D0E08EE1D82ECC24C394F701EC0FB9
:10183000FD1FEE52FC4F208131812A303105B1F17C
:10184000D29EF001D39EF00D1124E65EFD4FA48DD3
:10185000B58DA458B64ECC92818DF901EE57F64E57
:10186000882379F040917403509175034F3F9FEFA7
:10187000590729F081E02417350709F080E08083BB
:1018800001C0108280916B1B882381F080818823A6
:1018900069F0D29EC001D39E900D1124845E9D4FAD
:1018A0000E94F72784E390E10E94F7272296CC302C
:1018B000D10509F0BBCF0130110569F46AE081E878
:1018C0009CE10E94572581E090E00E945F2781E81B
:1018D0009CE10E94FB2480916B1B882361F0DF91C7
:1018E000CF911F910F91FF90EF90DF90CF900C94CC
:1018F0007527C1118FCFDF91CF911F910F91FF906D
:10190000EF90DF90CF9008950F93CF93DF93EC018A
:101910009093631B8093621B7093FF156093FE1579
:1019200050930916409308163093681B2093671B49
:1019300000938C190E941C1E609304167093051668
:101940008093061690930716109296191092951987
:101950001092651B1092641B1092001610920116D3
:1019600010920216109203166091911D7091921DB3
:101970008091931D9091941D0E944F4370938E1CF3
:1019800060938D1C1092F5151092F41580E090E094
:10199000A0E8BFE38093100290931102A09312027B
:1019A000B093130283E393E3A3E7BFE380931402AE
:1019B00090931502A0931602B09317021092611B28
:1019C0001092601B1092FD151092FC151092FB15E1
:1019D0001092FA1560918C19CE01D6DE80916B1BA6
:1019E000882309F448C084E092E10E94F727E0913F
:1019F000621BF091631BEE0FFF1FE258FC4F8081CA
:101A000091810E94F72784E192E10E94F7276AE022
:101A100070E08091FE159091FF150E94D8278BE20F
:101A20009AE00E94F7276AE070E080910816909192
:101A300009160E94D8278EE192E10E94F7276AE0FA
:101A400070E08091671B9091681B0E94D82785E306
:101A500092E10E94F72780918C19811103C08BEFCE
:101A600094E002C086EF94E00E94F727DF91CF91C7
:101A70000F910C947527DF91CF910F910895AF923C
:101A8000BF92CF92DF92EF92FF920F93CF93DF93AB
:101A9000EC015B016A0179010E941C1E609304162F
:101AA000709305168093061690930716D093631BC8
:101AB000C093621BB092FF15A092FE15D092F9154B
:101AC000C092F815F092681BE092671B00938C1986
:101AD00010929619109295191092651B1092641B22
:101AE0001092001610920116109202161092031610
:101AF0006091911D7091921D8091931D9091941D04
:101B00000E944F4370938E1C60938D1C1092F515AC
:101B10001092F41580E090E0A0E8BFE380931002FB
:101B200090931102A0931202B093130283E393E304
:101B3000A3E7BFE38093140290931502A0931602CB
:101B4000B09317021092611B1092601B1092FD154A
:101B50001092FC151092F7151092F6151092FB15C5
:101B60001092FA15602FCE010FDEF89410929119A1
:101B7000109292191092931910929419789480915E
:101B80006B1B882309F44EC084E092E10E94F72782
:101B9000E091621BF091631BEE0FFF1FE258FC4FB8
:101BA000808191810E94F72784E192E10E94F727CA
:101BB0006AE070E08091FE159091FF150E94D82791
:101BC0008AE492E10E94F7276AE070E08091F815BC
:101BD0009091F9150E94D8278EE192E10E94F72793
:101BE0006AE070E08091671B9091681B0E94D82783
:101BF00085E392E10E94F72780918C19811103C03F
:101C00008BEF94E002C086EF94E00E94F727DF910B
:101C1000CF910F91FF90EF90DF90CF90BF90AF905A
:101C20000C947527DF91CF910F91FF90EF90DF908B
:101C3000CF90BF90AF9008950F931F938091601B3A
:101C40009091611B97FF0CC080E692E10E94F727FC
:101C50008091601B9091611B1F910F910C94EB2759
:101C6000892B89F0809174039091750397FD0BC0C7
:101C70008CE892E10E94F7276AE070E08091601B97
:101C80009091611BD7C180916B1B8823D9F00E9472
:101C90001C1E009104161091051620910616309115
:101CA0000716601B710B820B930B4AE00E9478278A
:101CB00086EB92E10E94F7278091601B9091611B57
:101CC0000E94EB2740916403509165032091601BB3
:101CD0003091611B429FC001439F900D529F900D18
:101CE000112464E670E08D392FEF92077CF00E949A
:101CF0009443072E000C880B990B0E94F94020E0BA
:101D000030E040E05FE30E9483420EC00E949443B3
:101D1000072E000C880B990B0E94F94020E030E060
:101D200040E05FE30E9482420E944F430E94F940DC
:101D30002091100230911102409112025091130231
:101D40000E9458410E9454438091951C9091961C8A
:101D50000E94F71F40916203509163032091601B22
:101D60003091611B429FC001439F900D529F900D87
:101D7000112464E670E08D392FEF92077CF00E9409
:101D80009443072E000C880B990B0E94F94020E029
:101D900030E040E05FE30E9483420EC00E94944323
:101DA000072E000C880B990B0E94F94020E030E0D0
:101DB00040E05FE30E9482420E944F430E94F9404C
:101DC0002091140230911502409116025091170291
:101DD0000E9458410E9454438091931C9091941CFE
:101DE0000E94F71F40916603509167032091601B8A
:101DF0003091611B429FC001439F900D529F900DF7
:101E0000112464E670E08D392FEF92077CF00E9478
:101E10009443072E000C880B990B0E94F94020E098
:101E200030E040E05FE30E9483420EC00E94944392
:101E3000072E000C880B990B0E94F94020E030E03F
:101E400040E05FE30E9482420E944F430E94F940BB
:101E50002091140230911502409116025091170200
:101E60000E9458410E9454438091911C9091921C71
:101E70000E94F71F40916803509169032091601BF5
:101E80003091611B429FC001439F900D529F900D66
:101E9000112464E670E08D392FEF92077CF00E94E8
:101EA0009443072E000C880B990B0E94F94020E008
:101EB00030E040E05FE30E9483420EC00E94944302
:101EC000072E000C880B990B0E94F94020E030E0AF
:101ED00040E05FE30E9482420E944F430E94F9402B
:101EE0002091100230911102409112025091130280
:101EF0000E9458410E94544380918F1C9091901CE5
:101F00000E94F71F8091621B9091631B892B11F433
:101F100061E001C060E08FE10E94941CE091691BC8
:101F2000F0916A1B83E0EE0FFF1F8A95E1F7EA5AF2
:101F3000FB4F62818091951C9091961C0E9403201A
:101F4000E091691BF0916A1B93E0EE0FFF1F9A95D9
:101F5000E1F7EA5AFB4F60818091931C9091941CA9
:101F60000E940320E091691BF0916A1B23E0EE0FB1
:101F7000FF1F2A95E1F7EA5AFB4F64818091911C7B
:101F80009091921C0E940320E091691BF0916A1BC2
:101F900033E0EE0FFF1F3A95E1F7EA5AFB4F6681F7
:101FA00080918F1C9091901C0E9403200E941C1E07
:101FB0000091F0151091F1152091F2153091F31563
:101FC000DC01CB01801B910BA20BB30B81369A4E27
:101FD000A105B105A8F185E40E94C51DBC01990FBA
:101FE000880B990B0E94F94020E030E040E85BE369
:101FF0000E94584120E030E44CE955E40E945841E9
:102000000E944F4370930E1B60930D1B0E941C1E79
:102010006093F0157093F1158093F2159093F3157A
:1020200084EC92E10E94F7276AE070E080910D1B3A
:1020300090910E1B0E94D8271F910F910C94752729
:102040001F910F910895CF93DF93EB01E8E6F1E044
:10205000BF010E9494439C01CE01BF010E949443A2
:10206000A901481B590BCA01845E9D4FBF010E9404
:102070009443853B91051CF0845B910909C024EBD6
:1020800030E0A901481B590BCA01BF010E949443CB
:10209000DF91CF910895CF93DF93EC0189EC92E12A
:1020A0000E94F7276AE070E0CE010E94D8270E94C4
:1020B000752787EE93E0DF91CF910895AF92BF929D
:1020C000CF92DF92EF92FF920F931F93CF93DF9304
:1020D00004E913E0C6E6DDE17E01AA24AA94BA2C45
:1020E000CC24C394D12CF80160857185625E7F4F4A
:1020F000C7010E944420B0929019A0928F19D092EB
:102100008E19C0928D19065F1F4FF3E0EF0EF11C80
:1021100083E0003D180739F764E670E080E090E066
:102120000E94E41DE881F0E0CF01880F991FE80FBD
:10213000F91FEB52F34E80818F7B80832396EDE174
:10214000C837DE0779F7DF91CF911F910F91FF908C
:10215000EF90DF90CF90BF90AF9008952F923F9275
:102160004F925F926F927F928F929F92AF92BF92A7
:10217000CF92DF92EF92FF920F931F93CF93DF9353
:10218000CDB7DEB76D970FB6F894DEBF0FBECDBFEB
:102190008091720390917303909371038093700305
:1021A00080916B1B882381F08CEE92E10E94F727CF
:1021B000E0917003F0917103EE0FFF1FE255FB4FAA
:1021C000808191810E94F82710927303109272030C
:1021D00082E899E19B8F8A8F3AE1232E32E0332EF9
:1021E00046EEA42E46E1B42E9D8F8C8FE12CF12C6F
:1021F000C12CD12C00E010E0EC8DFD8D8191FD8F84
:10220000EC8F882309F4B0C0F101818D882309F493
:10221000ABC0808D882309F483C080E090E0442423
:102220004A94542C3201F501E80FF91F4081518185
:1022300062817381441555056605770510F42A01FE
:102240003B0106968234910571F70E941C1EDC0149
:10225000CB0184199509A609B7092091480330914B
:102260004903FBE0F29F4001F39F900C112494017D
:10227000092C000C440B550BE0916B1BEE2309F469
:102280004AC082179307A407B50708F449C00E9403
:102290001C1E6B017C01C418D508E608F7086DEF19
:1022A00072E1CE010E960E94AE19BE01625F7F4FB1
:1022B000CE014496C6D72AE08E010F5F1F4FA801BA
:1022C000C701B6010E94E83CF80101900020E9F73F
:1022D0003197AF01401B510BB801CE01449691D507
:1022E000811103C0CE014496B9D565E273E1CE01F8
:1022F00044962FD6B401F9D56FE273E12AD66BEF7D
:1023000074E027D60E942A28CE01449695D7CE01A4
:102310000E9692D736C082179307A407B50788F5A3
:10232000C8010E94B4028C159D0524F0C8010E94CA
:10233000B4026C01C8010E940C028E159F0524F0A6
:10234000C8010E940C027C018091151B9091161B04
:102350008C159D050CF4ECC18091111B9091121B02
:102360008E159F050CF412C20F5F1F4FFEE12F0E5A
:10237000311C42E4A40EB11C0A30110509F03CCF17
:1023800012C083E090E09093730380937203809176
:10239000700390917103039721F089E593E10E9406
:1023A000F82710E022C2809174039091750397FD85
:1023B00008C010916B1B112309F416C283E993E145
:1023C000B4C1A090151BB090161B00916E03109124
:1023D0006F030A151B050CF09CC08091720390914D
:1023E0007303019709F483C0C090131BD090141B92
:1023F0006CED73E1CE010196B1D7BE016F5F7F4FE7
:10240000CE010E961ED760E070E0CE010E966DD51F
:102410006FEC78E09ED5B50168D56FEC78E099D582
:10242000B80163D56FEC78E094D5B6015ED50E9413
:102430002A28CE010E9600D7CE010196FDD6E09057
:102440007A19F0907B1961EE73E1CE01019686D77F
:10245000BE016F5F7F4FCE010E96F3D660EC7EE03B
:10246000CE010E9676D5B50140D568E074E171D500
:10247000B8013BD56EE473E16CD52EE12C9DB00123
:102480002D9D700D1124645E7D4F63D563E174E171
:1024900060D5B7012AD56BE274E15BD50E942A288A
:1024A000CE010E96C9D6CE010196C6D681E090E047
:1024B000909373038093720364E374E1CE010196F9
:1024C0004DD7BE016F5F7F4F80E05CD7CE01019694
:1024D000B3D68091001690910116A0910216B0918A
:1024E0000316892B8A2B8B2B11F40E94272700E0DF
:1024F00010E0EA8DFB8D8191FB8FEA8F882319F024
:10250000C8010E945B030F5F1F4F0A30110589F756
:1025100048CF4AD49091171B8091181B981741F00F
:1025200081E89CE10E9446229093EF158093EE157E
:1025300083E697E00E94F72762E070E08091EE1555
:102540009091EF150E94D8278EE697E00E94F7271A
:102550009091171B8091181B981729F081E89CE136
:102560000E944622F5CFA090111BB090121B009143
:102570006C0310916D030A151B050CF093C080913C
:10258000720390917303029709F47AC0C0900F1BF5
:10259000D090101B66E474E1CE010E96DFD6BE012A
:1025A000625F7F4FCE0101964CD6B501CE010196F8
:1025B0009CD46FEC78E0CDD4B80197D46FEC78E080
:1025C000C8D4B60192D40E942A28CE01019634D6EE
:1025D000CE010E9631D6E0907A19F0907B196BE41B
:1025E00074E1CE010E96BAD6BE01625F7F4FCE0176
:1025F000019627D6B501CE01019677D468E074E143
:10260000A8D4B80172D46EE473E1A3D42EE12C9D5A
:10261000B0012D9D700D1124645E7D4F9AD463E14D
:1026200074E197D4B70161D46BE274E192D40E9453
:102630002A28CE01019600D6CE010E96FDD582E065
:1026400090E0909373038093720363E674E1CE018C
:10265000019684D6BE016F5F7F4F80E093D6CE0196
:102660000196EAD58091001690910116A09102166C
:10267000B0910316892B8A2B8B2B11F40E942727EC
:1026800000E010E0EA8DFB8D8191FB8FEA8F8823BB
:1026900019F0C8010E945B030F5F1F4F0A3011053C
:1026A00089F77FCE8091691B90916A1B019741F554
:1026B0000E940228892B21F18091661B811120C084
:1026C00081E08093661B2091641B3091651B809193
:1026D0006A0390916B03820F931F9093F915809377
:1026E000F8158FE894E10E94F7276AE070E0809186
:1026F0006A0390916B030E94D8270E94752774C0CB
:1027000080917003909171030197029708F06CC05B
:1027100082E794E10E94F7270E94752710916B1BB6
:10272000112309F461C086E794E10E94F8275DC097
:10273000D092161BC092151B1093141B0093131BF1
:1027400080916B1B882309F407CE8BE393E10E94F1
:10275000F7276AE070E08091151B9091161B0E948C
:10276000D8278EE493E10E94F7272091131B309124
:10277000141B4EE1429FC001439F900D1124845EC3
:102780009D4F0E94F7270E947527E6CD1093101BDE
:1027900000930F1BF092121BE092111B80916B1B98
:1027A000882309F4E1CD8BE393E10E94F7276AE0E7
:1027B00070E08091151B9091161B0E94D8278EE423
:1027C00093E10E94F7272091131B3091141BEEE137
:1027D000E29FC001E39F900D1124845E9D4F0E94F3
:1027E000F7270E947527C0CD11E0812F6D960FB697
:1027F000F894DEBF0FBECDBFDF91CF911F910F9137
:10280000FF90EF90DF90CF90BF90AF909F908F9010
:102810007F906F905F904F903F902F900895CF9250
:10282000DF92EF92FF920F931F93CF93DF936C0190
:102830007A018B01C0E0D0E0CE15DF0581F0D80130
:102840006D918D01D601ED91FC910190F081E02D0B
:10285000C6011995892B11F02196EECF7E01C70193
:10286000DF91CF911F910F91FF90EF90DF90CF906C
:1028700008950F931F93CF93DF93EC01062F142F2E
:102880006B818C819D810E9457258C819D81DC010B
:10289000ED91FC910190F081E02D602F19958C81D4
:1028A0009D81DC01ED91FC910190F081E02D612F83
:1028B00019958C819D810E94FB2481E0DF91CF914D
:1028C0001F910F910895462FFC01628773876DE376
:1028D00070E0CFDF6EE170E080E090E00C94E41DEA
:1028E000CF93DF93EC016B818C819D810E945725F2
:1028F0008C819D81DC01ED91FC910190F081E02DB6
:1029000060E019958C819D810E94FB2441E06B81E0
:102910008C819D810E9461258C819D81DC01ED91DE
:10292000FC910284F385E02D1995DF91CF910895F4
:102930000F931F93CF93DF93EC01888199810097C8
:1029400029F02A813B812617370788F48B016F5FB6
:102950007F4F0E94E444009761F0998388831B8332
:102960000A832C813D81232B11F4FC01108281E02C
:1029700001C080E0DF91CF911F910F910895909158
:102980005F1B9111FCCF91E090935F1B90935E1BB6
:102990002FEF20935D1B10925C1B260F20935B1B77
:1029A00090935A1B90915A1B880F892B80935A1B26
:1029B0008091591B813061F41092591B80915A1BF0
:1029C0008093BB008091BC0083FDF8CF85EC01C0F3
:1029D00085EE8093BC0080915F1B8130E1F3809194
:1029E0005C1B861710F460915C1BA9E3BBE1E9E175
:1029F000FBE180E0861721F09D9191938F5FFACFE4
:102A000008954F925F926F927F928F929F92AF92B2
:102A1000BF92CF92DF92EF92FF920F931F93CF93CB
:102A2000DF93CDB7DEB7A8970FB6F894DEBF0FBE21
:102A3000CDBF8C01BE016F5F7F4F0D960E946D254B
:102A40004D885E886F88788CD80159964D925D923A
:102A50006D927C925C97898D9A8DAB8DBC8D8DA388
:102A60009EA3AFA3B8A7F80181A392A3A3A3B4A385
:102A70008D8C9E8CAF8CB8A0858E968EA78EB0A2C2
:102A8000A301920165A176A187A190A50E9482422F
:102A90006B017C0120E030E0A9010E948043181600
:102AA0005CF420E030E040E05FE3C701B6010E9443
:102AB00080431816B4F027C020E030E040E05FEB20
:102AC000C701B6010E94F34087FF1DC020E030EC33
:102AD00043EB53ECC701B6010E94804318165CF02B
:102AE00012C020E030EC43EB53E4C701B6010E9472
:102AF000F34087FF08C0F80145A256A267A270A65E
:102B0000FF24F39401C0F12CA5019401D8019996FA
:102B10006D917D918D919C919C970E9482422B0199
:102B20003C0120E030E0A9010E94804318165CF4CB
:102B300020E030E040E85FE3C301B2010E9480433F
:102B400018165CF011C020E030E040E85FEBC301F4
:102B5000B2010E94F34087FF07C0F80181A692A648
:102B6000A3A6B4A6FF24F3942DA13EA14FA158A57E
:102B7000D8019D966D917D918D919C91D0970E94E9
:102B800082424B015C0120E030E0A9010E948043B9
:102B900018165CF420E030E040E05FE3C501B401CA
:102BA0000E94804318165CF015C020E030E040E041
:102BB0005FEBC501B4010E94F34087FF0BC08DA1FC
:102BC0009EA1AFA1B8A5F80185A796A7A7A7B0AB0E
:102BD000FF24F3948F2DA8960FB6F894DEBF0FBE96
:102BE000CDBFDF91CF911F910F91FF90EF90DF90BC
:102BF000CF90BF90AF909F908F907F906F905F909D
:102C00004F9008958F929F92AF92BF92CF92DF9292
:102C1000EF92FF920F931F93CF93DF936B017C0191
:102C2000142F9B01AC010E948443882319F08DED81
:102C300094E127C046015701E894B7F82FEF3FEF22
:102C40004FE75FE7C501B4010E94844381110DC0C5
:102C50002FEF3FEF4FE75FE7C501B4010E94F3405C
:102C600018161CF481EE94E10CC02FEF3FEF4FE7F4
:102C70005FE4C701B6010E948043181684F485EE14
:102C800094E1DF91CF911F910F91FF90EF90DF9032
:102C9000CF90BF90AF909F908F900C9463272FEFB1
:102CA0003FEF4FE75FECC701B6010E94F34087FD9D
:102CB000E6CF20E030E0A901C701B6010E94F34051
:102CC00087FF0AC06DE284EE9BE1ACD4EC01F7FA19
:102CD000F094F7F8F09402C0C0E0D0E000E060E0CB
:102CE00070E080E09FE3101741F020E030E040E228
:102CF00051E40E94E7420F5FF6CFA70196010E94C0
:102D000083426B017C010E9454434B015C014AE009
:102D10000E947827C80FD91F1123B1F1C501B40152
:102D20000E94F7409B01AC01C701B6010E9482429C
:102D30006B017C016EE284EE9BE174D4C80FD91F55
:102D400020E030E040E251E4C701B6010E94584162
:102D50004B015C010E9454436B01E12CF12C4AE0D1
:102D6000C701B6010E947827C80FD91FC701B60155
:102D70000E94F7409B01AC01C501B4010E94824250
:102D80006B017C011150E1F6CE01DF91CF911F91D3
:102D90000F91FF90EF90DF90CF90BF90AF909F90FA
:102DA0008F90089542E02ECF65E08AE0E8DD109232
:102DB000181B8093171B0895CF93DF93D82FC62F2E
:102DC0006091D41C81E89CE10E9457256D2F81E819
:102DD0009CE10E948E226C2F81E89CE10E948E2251
:102DE00081E89CE1DF91CF910C94FB24FC01808170
:102DF0009181009711F00C94433C60E070E0CB01AE
:102E00000895EF92FF920F931F93CF93DF93611575
:102E1000710511F480E01BC041155105B9F07B012B
:102E2000EC018C819D818A01080F191FB801CE0128
:102E30007FDD882379F3288139818C819D81B701D9
:102E4000820F931F0E94D1451D830C8381E0DF9187
:102E5000CF911F910F91FF90EF900895CF93DF9343
:102E6000EC0188819981009711F00E945B441982DE
:102E700018821D821C821B821A82DF91CF910895D5
:102E8000EF92FF920F931F93CF93DF93CDB7DEB7EF
:102E90002E970FB6F894DEBF0FBECDBF7C01CB01DD
:102EA000BA012AE08E010F5F1F4FA8010E94BD3CAE
:102EB000F80101900020E9F73197AF01401B510B59
:102EC000B801C7019EDF811102C0C701C7DFC7017A
:102ED0002E960FB6F894DEBF0FBECDBFDF91CF9117
:102EE0001F910F91FF90EF900895EF92FF920F9333
:102EF0001F93CF93DF93CDB7DEB728970FB6F89423
:102F0000DEBF0FBECDBF7C01CB014AE08E010F5F5B
:102F10001F4FB8010E94B33CF80101900020E9F76F
:102F20003197AF01401B510BB801C7016ADF811116
:102F300002C0C70193DFC70128960FB6F894DEBF21
:102F40000FBECDBFDF91CF911F910F91FF90EF90FA
:102F50000895CF93DF93EC016115710559F0FB01E2
:102F600001900020E9F73197AF01461B570B49DF6D
:102F7000811102C0CE0172DFCE01DF91CF910895A1
:102F8000EF92FF920F931F93CF93DF93EC017B019E
:102F90008A01BA01CDDC811103C0CE015FDF07C019
:102FA0001D830C83B701888199810E94D145CE0190
:102FB000DF91CF911F910F91FF90EF900895CF93E4
:102FC000DF93EC016115710551F0FB0101900020C8
:102FD000E9F73197AF01461B570BD2DF01C03EDF47
:102FE000CE01DF91CF9108950F931F93CF93DF937D
:102FF000CDB7DEB762970FB6F894DEBF0FBECDBF78
:103000008C01CB01F8011182108213821282158289
:1030100014824AE0BE016F5F7F4F0E94B33CBE0145
:103020006F5F7F4FC801CBDF62960FB6F894DEBFAB
:103030000FBECDBFDF91CF911F910F910895CF9318
:10304000DF93EC01FB018617970751F060817181D6
:103050006115710521F04481558192DF01C0FEDECA
:10306000CE01DF91CF910895CF92DF92EF92FF9240
:103070000F931F93CF93DF93CDB7DEB72C970FB687
:10308000F894DEBF0FBECDBF8C017901FC016193C6
:10309000CF01BA01D4DFB701C8010796D0DF89EEAE
:1030A00094E10E94F727F801608170E080E090E0F1
:1030B00040E10E9478270E947527F80180817801FD
:1030C000FDE0EF0EF11C9B81F8019787808B81E872
:1030D0009CE1928B818B87E390E0A0E0B0E0838B52
:1030E000948BA58BB68B8B859C85908F878B8EEF71
:1030F00094E10E94F727F801458156816181728130
:1031000084EE9BE18CDB0E947527F801818992890E
:103110000E944526C701E4DB803A71F460E070E06C
:10312000C701D1DB40E26FE370E0C701A2DB6EE1D3
:1031300070E080E090E00FC068EE73E080E090E027
:1031400043D5C701CDDB803A49F381E295E10E9486
:10315000F82780E062C038D5C701C2DB803A29F089
:103160006AE070E080E090E0F6CF62E370E080E03B
:1031700090E02AD540E06EE370E0C7017ADB6AE0B8
:1031800070E080E090E020D540E067E070E0C701AB
:1031900070DB40E06FE370E0C7016BDB6AE070E07A
:1031A00080E090E011D56CE070E0C7018CDB64E159
:1031B00070E080E090E008D580E195E10E94F8277A
:1031C000F801C788D08C60E070E0C7017CDB69E162
:1031D00070E080E090E0F8D440E067E070E0C70184
:1031E00048DB40E86FE370E0C70143DB6AE070E072
:1031F00080E090E0E9D4B601C70165DB64E170E0EE
:1032000080E090E0E1D4C801FCDB62E370E080E0A4
:1032100090E0DAD4C801F5DB81E02C960FB6F89483
:10322000DEBF0FBECDBFDF91CF911F910F91FF90F9
:10323000EF90DF90CF900895FC01808191810C94F4
:103240005B44FC0111821082138212821582148267
:10325000F6CE4F925F926F927F928F929F92AF9233
:10326000BF92CF92DF92EF92FF920F931F93CF9373
:10327000DF93CDB7DEB72C970FB6F894DEBF0FBE45
:10328000CDBF8C0120E030E04AE754E4FC01618DC1
:10329000728D838D948D0E9458410E944F432B0163
:1032A0003C0120E030E04AE754E4F801658D768D7A
:1032B000878D90A10E9458410E944F434B015C01B1
:1032C00020E030E04AE754E4F80161A172A183A153
:1032D00094A10E9458410E944F436B017C01B801A8
:1032E000695F7F4FCE010796ACDFBE01695F7F4FFC
:1032F000CE010196A6DF6FEC78E0CE01019629DEC3
:10330000B301A201BDDD6FEC78E023DEB501A401BD
:10331000B7DD6FEC78E01DDEB701A601B1DD0E94DC
:103320002A28CE01019688DFCE01079685DF2C96EC
:103330000FB6F894DEBF0FBECDBFDF91CF911F91C6
:103340000F91FF90EF90DF90CF90BF90AF909F9044
:103350008F907F906F905F904F900895FC01118245
:10336000108213821282158214826115710549F050
:10337000FB0101900020E9F73197AF01461B570B85
:10338000FFCD08958F929F92AF92BF92EF92FF92DE
:103390000F931F93CF93DF93CDB7DEB72C970FB664
:1033A000F894DEBF0FBECDBF182F7B0180916B1B41
:1033B000882389F08EE595E10E94F7276AE070E0A6
:1033C000812F90E00E94D82783E795E10E94F7279C
:1033D000C7010E942A2810926A1B1092691B1123B0
:1033E00009F45AC00E945E101092681B1092671B6D
:1033F0008FEF9FEF90937503809374031092661B79
:103400006AE081E89CE10E94572582E090E00E94FA
:103410005F2781E89CE10E94FB240091641B1091CE
:10342000651B6091911D7091921D8091931D9091EB
:10343000941D0E944F434B015C016DE775E1CE0185
:1034400007968CDFBE01695F7F4FCE010196F9DEE2
:10345000B401CE01019649DD6FEC78E07ADDB80168
:1034600044DD6FEC78E075DD8C01F7014481558116
:1034700060817181C6DC811102C0C801EFDCC80126
:103480000E942A28CE010196D7DECE010796D4DE0F
:103490001092631B1092621B1092611B1092601BB2
:1034A0000E941C0E0E9408272C960FB6F894DEBFCF
:1034B0000FBECDBFDF91CF911F910F91FF90EF9085
:1034C000BF90AF909F908F900895AF92BF92CF9290
:1034D000DF92EF92FF920F931F93CF93DF936C01D4
:1034E0005B018A0179012417350720F4812F8901B6
:1034F000E42EF82E65EE75E1C60130DFD501149695
:10350000CD91DC9115970C171D07C0F4EC16FD0644
:1035100008F4E701D501ED91FC911197EC0FFD1F27
:10352000F08010826D917C91600F711FC60147DDA4
:10353000F50180819181C80FD91FF882C601DF9102
:10354000CF911F910F91FF90EF90DF90CF90BF90A0
:10355000AF900895FC01538D448D252F30E0842FCA
:1035600090E0821B930B541710F0CF9608950197AB
:103570000895FC01918D828D981761F0828DDF0195
:10358000A80FB11D5D968C91928D9F5F9F73928F56
:1035900090E008958FEF9FEF0895FC01918D828D4B
:1035A000981731F0828DE80FF11D858D90E0089518
:1035B0008FEF9FEF0895FC01918D228D892F90E070
:1035C000805C9F4F821B91098F739927089584EE29
:1035D0009BE1F1DF21E0892B09F420E0822F08959F
:1035E000FC01848DDF01A80FB11DA35ABF4F2C91A0
:1035F000848D90E001968F739927848FA689B7896F
:103600002C93A089B1898C91837080648C93938D65
:10361000848D981306C00288F389E02D80818F7D08
:1036200080830895EF92FF920F931F93CF93DF93C0
:10363000EC0181E0888F9B8D8C8D981305C0E88903
:10364000F989808185FD25C0F62E0B8D10E00F5F76
:103650001F4F0F731127E02E8C8DE8120BC00FB691
:1036600007FCFACFE889F989808185FFF5CFCE0183
:10367000B7DFF2CF8B8DFE01E80FF11DE35AFF4F4C
:10368000F0829FB7F8940B8FEA89FB898081806272
:103690000AC09FB7F894EE89FF896083E889F989A9
:1036A00080818370806480839FBF81E090E0DF91A0
:1036B000CF911F910F91FF90EF900895CF93DF93DB
:1036C000EC01888D8823C1F0EA89FB89808185FD22
:1036D00005C0A889B9898C9186FD0EC00FB607FC7C
:1036E000F5CF808185FFF2CFA889B9898C9185FFBC
:1036F000EDCFCE0175DFE8CFDF91CF91089580E067
:1037000090E0892B19F063DF811125C080E090E003
:10371000892B41F080E090E0892B21F00E9400008D
:1037200081111CC080E090E0892B41F080E090E0A6
:10373000892B21F00E940000811113C080E090E0ED
:10374000892BA1F080E090E0892B81F00E9400009D
:1037500081110AC008950E940000D8CF0E94000085
:10376000E1CF0E940000EACF0C94000008953FB71B
:10377000F8948091711B9091721BA091731BB09172
:10378000741B26B5A89B05C02F3F19F00196A11DFB
:10379000B11D3FBFBA2FA92F982F8827820F911DE7
:1037A000A11DB11DBC01CD0142E0660F771F881F2E
:1037B000991F4A95D1F7089508950E94C4451F9214
:1037C0000F920FB60F9211240BB60F922F933F93C7
:1037D0004F935F936F937F938F939F93AF93BF9319
:1037E000EF93FF9384EE9BE1FBDEFF91EF91BF919E
:1037F000AF919F918F917F916F915F914F913F9189
:103800002F910F900BBE0F900FBE0F901F90189529
:103810001F920F920FB60F9211240BB60F922F9397
:103820008F939F93EF93FF93E091F41BF091F51B1F
:103830008081E091FA1BF091FB1B82FD12C0908108
:103840008091FD1B8F5F8F732091FE1B821751F0BB
:10385000E091FD1BF0E0EC51F44E958F8093FD1B41
:1038600001C08081FF91EF919F918F912F910F90D7
:103870000BBE0F900FBE0F901F90189590E0FC01AB
:103880003197E231F10508F04EC08827EE58FF4F1E
:103890008F4F0C94A743809180008F7703C0809155
:1038A00080008F7D80938000089580918000877FC5
:1038B000F9CF84B58F7702C084B58F7D84BD08951C
:1038C0008091B0008F7703C08091B0008F7D80938E
:1038D000B0000895809190008F7707C0809190008C
:1038E0008F7D03C080919000877F80939000089522
:1038F0008091A0008F7707C08091A0008F7D03C0CA
:103900008091A000877F8093A0000895809120017E
:103910008F7707C0809120018F7D03C080912001A7
:10392000877F8093200108951F93CF93DF93282FE3
:1039300030E0F901E55CFC4F8491F901EB50FD4F5B
:10394000D491F901E155FD4FC491CC23B9F0162F64
:10395000811194DFEC2FF0E0EE0FFF1FE558FD4FD3
:10396000A591B4919FB7F894111104C08C91D09592
:10397000D82302C0EC91DE2BDC939FBFDF91CF9167
:103980001F910895CF93DF9390E0FC01EB50FD4F22
:103990002491FC01E155FD4F8491882361F190E071
:1039A000880F991FFC01EF59FD4FC591D491FC017F
:1039B000E558FD4FA591B491611109C09FB7F894E6
:1039C0008881209582238883EC912E230BC062305E
:1039D00061F49FB7F8948881322F309583238883D0
:1039E000EC912E2B2C939FBF06C08FB7F894E881E3
:1039F0002E2B28838FBFDF91CF9108951F93CF93F4
:103A0000DF93182FEB0161E0BDDF209711F460E038
:103A100004C0CF3FD10531F461E0812FDF91CF9118
:103A20001F9182CFE12FF0E0E55CFC4FE4918E2FF7
:103A300090E0FC013197E231F10508F09DC0882744
:103A4000EC57FF4F8F4F0C94A74384B5806884BD1B
:103A5000C7BD97C084B5806284BDC8BD92C0809147
:103A60008000806880938000D0938900C093880094
:103A700088C080918000806280938000D0938B000A
:103A8000C0938A007EC0809180008860809380000F
:103A9000D0938D00C0938C0074C08091B00080687A
:103AA0008093B000C093B3006CC08091B00080627E
:103AB0008093B000C093B40064C08091900080688F
:103AC00080939000D0939900C09398005AC0809141
:103AD0009000806280939000D0939B00C0939A00E6
:103AE00050C080919000886080939000D0939D009A
:103AF000C0939C0046C08091A00080688093A00085
:103B00008091A0008F7B8093A000D093A900C093E8
:103B1000A80037C08091A00080628093A000D0935D
:103B2000AB00C093AA002DC08091A0008860809354
:103B3000A000D093AD00C093AC0023C080912001C1
:103B4000806880932001D0932901C093280119C077
:103B500080912001806280932001D0932B01C0933B
:103B60002A010FC080912001886080932001D093AA
:103B70002D01C0932C0105C0C038D1050CF04CCFED
:103B800046CFDF91CF911F910895863308F0865379
:103B900090917B00282F2870977F922B90937B0029
:103BA0008770806480937C0080917A008064809329
:103BB0007A0080917A0086FDFCCF80917800209178
:103BC000790090E0922B08958F929F92AF92BF92CE
:103BD000CF92DF92EF92FF926B017C01C8DD4B0127
:103BE0005C01C114D104E104F104E9F0C0DDDC01A1
:103BF000CB0188199909AA09BB09883E9340A10500
:103C0000B10578F321E0C21AD108E108F10888EE85
:103C1000880E83E0981EA11CB11CC114D104E104DC
:103C2000F10421F7DECFFF90EF90DF90CF90BF90AF
:103C3000AF909F908F9008952FB7F89460916D1B6F
:103C400070916E1B80916F1B9091701B2FBF089518
:103C50001F920F920FB60F9211242F933F938F93C1
:103C60009F93AF93BF9380916D1B90916E1BA0911A
:103C70006F1BB091701B30916C1B23E0230F2D370D
:103C800020F40196A11DB11D05C026E8230F029660
:103C9000A11DB11D20936C1B80936D1B90936E1B17
:103CA000A0936F1BB093701B8091711B9091721B3E
:103CB000A091731BB091741B0196A11DB11D80933F
:103CC000711B9093721BA093731BB093741BBF91D5
:103CD000AF919F918F913F912F910F900FBE0F90B9
:103CE0001F9018951F920F920FB60F9211240BB6CA
:103CF0000F922F933F934F935F936F937F938F9385
:103D00009F93AF93BF93EF93FF93E0910E02F091D7
:103D10000F021995FF91EF91BF91AF919F918F91F4
:103D20007F916F915F914F913F912F910F900BBEBB
:103D30000F900FBE0F901F9018951F920F920FB605
:103D40000F9211240BB60F922F933F934F935F93D3
:103D50006F937F938F939F93AF93BF93EF93FF9353
:103D6000E0910C02F0910D021995FF91EF91BF9136
:103D7000AF919F918F917F916F915F914F913F9103
:103D80002F910F900BBE0F900FBE0F901F901895A4
:103D90001F920F920FB60F9211240BB60F922F9312
:103DA0003F934F935F936F937F938F939F93AF93C3
:103DB000BF93EF93FF93E0910202F09103021995F4
:103DC000FF91EF91BF91AF919F918F917F916F91F3
:103DD0005F914F913F912F910F900BBE0F900FBEAF
:103DE0000F901F9018951F920F920FB60F921124EB
:103DF0000BB60F922F933F934F935F936F937F93E5
:103E00008F939F93AF93BF93EF93FF93E091000243
:103E1000F09101021995FF91EF91BF91AF919F91A0
:103E20008F917F916F915F914F913F912F910F9063
:103E30000BBE0F900FBE0F901F9018951F920F9200
:103E40000FB60F9211240BB60F922F933F934F93FF
:103E50005F936F937F938F939F93AF93BF93EF93F2
:103E6000FF93E0910A02F0910B021995FF91EF91F7
:103E7000BF91AF919F918F917F916F915F914F9182
:103E80003F912F910F900BBE0F900FBE0F901F9080
:103E900018951F920F920FB60F9211240BB60F9226
:103EA0002F933F934F935F936F937F938F939F9342
:103EB000AF93BF93EF93FF93E0910802F091090253
:103EC0001995FF91EF91BF91AF919F918F917F9144
:103ED0006F915F914F913F912F910F900BBE0F907B
:103EE0000FBE0F901F9018951F920F920FB60F9252
:103EF00011240BB60F922F933F934F935F936F93C1
:103F00007F938F939F93AF93BF93EF93FF93E09132
:103F10000602F09107021995FF91EF91BF91AF91C1
:103F20009F918F917F916F915F914F913F912F91D1
:103F30000F900BBE0F900FBE0F901F9018951F9201
:103F40000F920FB60F9211240BB60F922F933F933F
:103F50004F935F936F937F938F939F93AF93BF9391
:103F6000EF93FF93E0910402F09105021995FF9100
:103F7000EF91BF91AF919F918F917F916F915F91E1
:103F80004F913F912F910F900BBE0F900FBE0F904E
:103F90001F901895FF920F931F93CF93DF93C62F17
:103FA000F42E152F022FD32FFC01608181E89CE1B4
:103FB0007ED5F4E0CF9FC0011124069680D78F2DC7
:103FC000912F0E942628812F90E00E942628802F82
:103FD0009D2F0E9426288D2F90E00E94262881E8A0
:103FE0009CE1DF91CF911F910F91FF9004C5FC01DF
:103FF00080E1689F900111248381948140E050E02A
:104000006081CD96C7CFCF93DF93EC016230A9F0EA
:10401000643019F16130A9F58B819C8120E030E09A
:1040200040E050E06A81CD96B5DF8B819C8120E035
:1040300030E040E050E1698120C08B819C8120E02C
:1040400030E040E050E06981CD96A4DF8B819C8117
:1040500020E030E040E050E10FC08B819C8120E007
:1040600030E040E050E06981CD9694DF8B819C8107
:1040700020E030E040E050E06A81CD96DF91CF91C2
:1040800089CFDF91CF910895CF92DF92EF92FF9287
:10409000CF93DF93EC01603282E078070CF03DC0F3
:1040A00077FD06C0653B71052CF064EB70E002C043
:1040B00060E070E0898128E830E06901C81AD10821
:1040C00087FDD394CC0CDD1CCC0CDD1C0D2C000C1E
:1040D000EE08FF088A8128E532E0281B310987FDB8
:1040E0003395220F331F220F331FC901330FAA0B41
:1040F000BB0B9C01AD012C193D094E095F09DB0189
:104100000E944B4224EB30E040E050E00E94254208
:10411000C20ED31EE41EF51EB6013881303380F581
:10412000298188E890E0821B910927FD9395880FEB
:10413000991F880F991F6817790784F08A8148E5CD
:1041400052E0481B510987FD5395440F551F440FFA
:10415000551FCB01461757070CF4CA010297880F69
:10416000991F4FB7F894232F30E0F901EE0FFF1F8E
:104170002E0F3F1FF901EB52F34E928381834FBF05
:10418000DF91CF91FF90EF90DF90CF9008951F9334
:10419000CF93DF93EC01162F8881803308F04DC058
:1041A00061E0812FEFDB8881E82FF0E09F01220F93
:1041B000331FE20FF31FEB52F34E1F739081907C7D
:1041C000192B108319821A826CE00E9488439CE0AC
:1041D000899FB001112440E050E09B01240F351F5E
:1041E000F901EE0FFF1F2E0F3F1FF901EB52F34EA7
:1041F000908196FD16C04F5F5F4F4C30510569F7B7
:10420000813001F51092800082E08093810010924D
:10421000850010928400B19A80916F008260809333
:104220006F00E881F0E0CF01880F991FE80FF91FB8
:10423000EB52F34E8081806480838881DF91CF913F
:104240001F910895823061F4109290008093910044
:10425000109295001092940088BB80937100E1CF7A
:10426000833069F41092A00082E08093A100109244
:10427000A5001092A40089BB80937200D2CF811157
:10428000D0CF1092200182E080932101109225016D
:10429000109224018ABB80937300C3CF1F920F92A8
:1042A0000FB60F9211240BB60F922F933F934F939B
:1042B0005F936F937F938F939F93AF93BF93EF938E
:1042C000FF9348E251E064E271E080E090E09DD12C
:1042D000FF91EF91BF91AF919F918F917F916F91DE
:1042E0005F914F913F912F910F900BBE0F900FBE9A
:1042F0000F901F9018951F920F920FB60F921124D6
:104300000BB60F922F933F934F935F936F937F93CF
:104310008F939F93AF93BF93EF93FF9348EA50E03F
:1043200064EA70E083E090E070D1FF91EF91BF917B
:10433000AF919F918F917F916F915F914F913F913D
:104340002F910F900BBE0F900FBE0F901F901895DE
:104350001F920F920FB60F9211240BB60F922F934C
:104360003F934F935F936F937F938F939F93AF93FD
:10437000BF93EF93FF9348E950E064E970E082E077
:1043800090E043D1FF91EF91BF91AF919F918F91B9
:104390007F916F915F914F913F912F910F900BBE45
:1043A0000F900FBE0F901F9018951F920F920FB68F
:1043B0000F9211240BB60F922F933F934F935F935D
:1043C0006F937F938F939F93AF93BF93EF93FF93DD
:1043D00048E850E064E870E081E090E016D1FF9199
:1043E000EF91BF91AF919F918F917F916F915F916D
:1043F0004F913F912F910F900BBE0F900FBE0F90DA
:104400001F90189585ED8093BC008091BC0084FDC1
:10441000FCCF10925F1B08954091BB1B262F30E00C
:10442000240F311D21323105DCF420915F1B243033
:10443000C9F4FC0180E090E0861758F43091BB1B72
:104440002191DC01A756B44EA30FB11D2C93019608
:10445000F3CF8091BB1B680F6093BB1B80E0089576
:1044600081E0089582E00895089508950895E09107
:10447000181B8091171BE81730F4F0E0E75EF44E4C
:10448000808190E008958FEF9FEF08959091181B21
:104490008091171B981750F4E92FF0E0E75EF44E77
:1044A000208130E09F5F9093181B02C02FEF3FEFF9
:1044B000C90108958091171B90E02091181B821B61
:1044C00091090895CF92DF92EF92FF920F931F937D
:1044D000CF93DF937C01CB018A012091961B22238D
:1044E00089F0EB016B01C40ED51ECC15DD0561F022
:1044F0006991D701ED91FC910190F081E02DC70108
:104500001995F3CF642F88DFC801DF91CF911F91F8
:104510000F91FF90EF90DF90CF900895CF93DF93AE
:104520001F92CDB7DEB769832091961B2223D1F06D
:104530002091971B203240F021E030E0FC013383D2
:10454000228380E090E014C08091981BE82FF0E077
:10455000EA58F44E998190838F5F8093981B8093E3
:10456000971B04C061E0CE01019656DF81E090E028
:104570000F90DF91CF910895089580E090E0089525
:104580000F931F93CF93DF938C01EB0188E2FB0124
:1045900011928A95E9F74BE050E062E875E1CE01AF
:1045A0000E94D8451B8681E090E0A0E0B0E08C87B7
:1045B0009D87AE87BF87F80186819781A085B185E9
:1045C000888B998BAA8BBB8B83E090E0A0E0B0E056
:1045D0008C8B9D8BAE8BBF8B1CA21DA21EA21FA21B
:1045E000188E198E1A8E1B8E1C8E1D8E1E8E1F8E7F
:1045F0008AE097EDA3E2BCE388A399A3AAA3BBA397
:10460000DF91CF911F910F910895CF92DF92EF929A
:10461000FF920F931F93CF93DF936C018B017A016D
:10462000EC01C052D44E888187FF04C0FB01118287
:10463000108224C02CE02C9DC0012D9D900D1124D2
:104640002881AC01420F511D27FD5A952091651D0F
:1046500030E04217530794F42881AC01420F511DFA
:1046600027FD5A959A01FA01EE0FFF1F2E0F3F1FEB
:10467000F901EB52F34E208126FD19C088818F5F2E
:1046800088832CE02C9DC0012D9D900D1124288144
:10469000AC01420F511D27FD5A952091651D30E058
:1046A00042175307B4F428812C303CF112C0288102
:1046B000820F911D27FD9A95FC01EE0FFF1F8E0FB3
:1046C0009F1FFC01EB52F34E808160E08F732CD969
:1046D000D5CFF80180819181049680349C4918F4EB
:1046E00080E49CE904C0F801808191810496F7017F
:1046F000918380838FEF888344C0F801408151818A
:104700002881BC01620F711D27FD7A959B01FB0179
:10471000EE0FFF1F2E0F3F1FF901EB52F34E2181C9
:104720003281240F351FF701318320832881AC01AA
:10473000420F511D27FD5A959A01FA01EE0FFF1FF6
:104740002E0F3F1FF901EB52F34E208126FF19C0B7
:104750002881820F911D27FD9A95FC01EE0FFF1F06
:104760008E0F9F1FFC01EB52F34E808161E08F732F
:10477000DF91CF911F910F91FF90EF90DF90CF903D
:10478000D3C8DF91CF911F910F91FF90EF90DF90F1
:10479000CF9008951F920F920FB60F9211240BB66F
:1047A0000F922F933F934F935F936F937F938F93CA
:1047B0009F93AF93BF93EF93FF938091B900887F4E
:1047C000803609F49CC068F5883209F45BC090F427
:1047D000803109F454C038F4882309F4F6C08830D5
:1047E00009F44DC0F5C0883109F44CC0803209F499
:1047F0005DC0EEC0803409F468C048F4803309F429
:1048000055C0883309F0E4C080935D1BD8C0803563
:1048100009F44FC0883509F45DC0883409F0D8C068
:10482000D6C0883909F4C7C0A8F4883709F467C02E
:1048300038F4883609F463C0803709F460C0C8C012
:10484000883809F4B8C0803909F45FC0803809F0AD
:10485000BFC05BC0803B09F486C038F4803A09F4DD
:1048600066C0883A09F47FC0B3C0803C09F4A7C091
:10487000883C09F4A4C0883B09F48AC0A9C080918F
:104880005A1B10C090915C1B80915B1B981770F5B0
:10489000E0915C1B81E08E0F80935C1BF0E0E75C95
:1048A000F44E80818093BB0085EC86C080935D1BB5
:1048B0008EC0E0915C1B81E08E0F80935C1B809129
:1048C000BB00F0E0E75CF44E808390915C1B80912C
:1048D0005B1B6EC0E0915C1B81E08E0F80935C1BC4
:1048E0008091BB00F0E0E75CF44E808380915E1B1A
:1048F00081116DC081E08093591B84EA61C083E01F
:1049000080935F1B1092DF1BCFCF8091DF1B803223
:1049100008F051C0E091DF1B81E08E0F8093DF1B18
:104920008091BB00F0E0E154F44E8083BDCF85EC74
:104930008093BC0010925F1B8091DF1B803230F4AB
:10494000E091DF1BF0E0E154F44E10826091DF1B38
:1049500070E0E091BD1BF091BE1B8FEB9BE11995C0
:104960001092DF1B35C084E080935F1B1092BC1B4C
:104970001092BB1BE091B91BF091BA1B1995809165
:10498000BB1B811105C081E08093BB1B1092991B5A
:10499000E091BC1B81E08E0F8093BC1BF0E0E756DA
:1049A000F44E80818093BB009091BC1B8091BB1B17
:1049B000981708F479CF85E88093BC0009C085EC8E
:1049C0008093BC0010925F1B03C010925D1B1ADD28
:1049D000FF91EF91BF91AF919F918F917F916F91D7
:1049E0005F914F913F912F910F900BBE0F900FBE93
:1049F0000F901F9018953091971B313208F04BC0E3
:104A000080915F1B8111FCCF9091751B22E0209358
:104A10005F1B21E020935E1B2FEF20935D1B109204
:104A20005C1B30935B1BE6E7FBE1A9E3BBE120E005
:104A3000321721F041914D932F5FFACF10925A1BFC
:104A400020915A1B990F922B90935A1B9091591BAE
:104A5000913061F41092591B90915A1B9093BB00B6
:104A60009091BC0093FDF8CF95EC01C095EE90932A
:104A7000BC0090915F1B9230E1F390915D1B9F3FD2
:104A800079F080915D1B803241F080915D1B803315
:104A900031F084E005C081E003C082E001C083E022
:104AA0001092981B1092971B1092961B089581E00C
:104AB0008093961B6093751B1092981B1092971B06
:104AC0000895862F413208F040E2642F0E94BF14FF
:104AD0001092181B8093171B08958F929F92AF928C
:104AE000BF92CF92DF92EF92FF920F931F93CF93DB
:104AF000DF93CDB7DEB762970FB6F894DEBF0FBE77
:104B0000CDBF7C018B0184E2DB011D928A95E9F720
:104B100084E290E0A0E0B0E0FB0180839183A28377
:104B2000B383F70186819781A085B185FB018483DA
:104B30009583A683B78383E090E0A0E0B0E0808710
:104B40009187A287B38778D8D80150966D937D93CB
:104B50008D939C935397FE0131968CE0DF011D925B
:104B60008A95E9F76E01BDE0CB0ED11C86E0F60117
:104B700011928A95E9F7D70113966C9113971496C1
:104B80008D919C91159793DFF70184819581DC01CC
:104B9000ED91FC910190F081E02D6AE11995F7010A
:104BA0008481958128DF46E0D70113966C91139795
:104BB00014968D919C91159784DF5E01B3E1AB0E45
:104BC000B11CF70184819581DC01ED91FC91028497
:104BD000F385E02D1995F60181936F01EA15FB0528
:104BE00081F76D857E85072E000C880B990B0E943E
:104BF000F94020E030E040E85DE30E9458414B017D
:104C00005C016F857889072E000C880B990B0E9438
:104C1000F94020E030E040E85DE30E9458416B013C
:104C20007C0169897A89072E000C880B990B0E94F8
:104C3000F94020E030E040E85DE30E945841D801AF
:104C400054968D929D92AD92BC925797F801C08E6A
:104C5000D18EE28EF38E5C966D937D938D939C93B3
:104C60005F9781E062960FB6F894DEBF0FBECDBFAE
:104C7000DF91CF911F910F91FF90EF90DF90CF9038
:104C8000BF90AF909F908F9008951092181B109234
:104C9000171B1092981B1092971B10925F1B81E0BC
:104CA00080935E1B1092591B61E084E10E94941C6A
:104CB00061E085E10E94941CE9EBF0E080818E7F49
:104CC000808380818D7F808388E48093B80085E431
:104CD0008093BC0084E392E29093BA1B8093B91B4B
:104CE00085E392E29093BE1B8093BD1B08958F9243
:104CF0009F92AF92BF92CF92DF92EF92FF920F936B
:104D00001F93CF93DF930AE010E0C0E0D0E083E48C
:104D10000E94C51DC80FD91F61E070E080E090E0DF
:104D20000E94E41D0150110991F7CE016AE070E084
:104D30000E9494437B016FEF73E06E197F09072E89
:104D4000000C880B990B0E94F94020E030E04AE704
:104D50005EE30E94584120E030E847E254E40E94BC
:104D600083420E944F434B015C01EB0189E895E1CE
:104D70003ED16AE070E0C7011BD182EA95E137D1EC
:104D80006401092C000CEE08FF08C701B60197FC6E
:104D900009C00E94F94020E030E040E05FE30E945B
:104DA000834208C00E94F94020E030E040E05FE329
:104DB0000E9482420E944F4397FF02C0D9D002C096
:104DC0004AE096D092D0C701B601D7FD09C00E9433
:104DD000F94020E030E040E05FE30E94834208C0F9
:104DE0000E94F94020E030E040E05FE30E94824210
:104DF0000E944F43CB01DF91CF911F910F91FF9004
:104E0000EF90DF90CF90BF90AF909F908F900895DC
:104E100080917603909177030297C1F082E090E051
:104E200090937703809376038EEB95E1E1D060E079
:104E300070E082E00E94FE1C60E070E083E00E946F
:104E4000FE1C61E08EE10E94941C51CF0895CF9327
:104E5000DF930E941C1E60930016709301168093CE
:104E6000021690930316C0918D1CD0918E1C6091F8
:104E7000911D7091921D8091931D9091941D0E949F
:104E80004F43DC01CB01BE010E9423109093FD151E
:104E90008093FC158091641B9091651B9093F7158E
:104EA0008093F61580919519909196199093FB1522
:104EB0008093FA1589EC95E1DF91CF9199C0682F25
:104EC00081E89CE12BCB009769F0FC010190002068
:104ED000E9F73197AF01481B590BBC0184EE9BE108
:104EE0000C940F1480E090E0089583EE95E1EBCFF1
:104EF0008F929F92AF92BF920F931F93CF93DF93A6
:104F0000CDB7DEB7A1970FB6F894DEBF0FBECDBF09
:104F100019A2423008F44AE08E010F5D1F4F842E23
:104F2000912CA12CB12CA50194010E945142E62F95
:104F3000B901CA0101501109EA3014F4E05D01C061
:104F4000E95CD801EC93232B242B252B61F7C801B6
:104F5000BADFA1960FB6F894DEBF0FBECDBFDF91CA
:104F6000CF911F910F91BF90AF909F908F90089518
:104F7000CF92DF92EF92FF92CF93DF936B017C0190
:104F80006DE284EE9BE10E94121BEC0166277727FD
:104F9000CB016C197D098E099F094AE0A9DF8C0FAE
:104FA0009D1FDF91CF91FF90EF90DF90CF900895FC
:104FB000AB01672B29F4682F84EE9BE10C94121B44
:104FC000BC01990F880B990B4A30510519F497FDD4
:104FD000CFCF4AE08DCFCF93DF936AE070E0E8DF78
:104FE000EC0183DF8C0F9D1FDF91CF9108956BCF74
:104FF000CF93DF9368DFEC0178DF8C0F9D1FDF918B
:10500000CF910895CF93DF93E8E6F3E08491E2E255
:10501000F3E0D491ECEDF2E0C491CC2391F0811156
:105020000E943E1CEC2FF0E0EE0FFF1FEB56FD4FF1
:10503000A591B491EC91ED2381E090E021F480E022
:1050400002C080E090E0DF91CF910895682F81E861
:105050009CE164CACF93DF93FC0144815581608158
:10506000718184EE9BE10E940F14EC013EDF8C0FF6
:105070009D1FDF91CF910895CF93DF93EC0165EEF3
:1050800075E101960E94AE1965EE75E1CE010796B5
:105090000E94AE198AEB94E09E878D878FEF9FEF79
:1050A000DC018B8B9C8BAD8BBE8B88E2888B81E87F
:1050B0009CE19A8B898BDF91CF9108950F931F9379
:1050C000CF93DF93EC018B01FB012191BF01FC0128
:1050D0002193CF010E942119B801695F7F4FCE0152
:1050E00007960E942119F80187858F878AEB94E043
:1050F0009E878D878089888B818992899A8B898BFD
:1051000083899489A589B6898B8B9C8BAD8BBE8B4B
:105110008789908D988F8F8B818D928DA38DB48D83
:10512000898F9A8FAB8FBC8F858D968DA78DB0A1FF
:105130008D8F9E8FAF8FB8A381A192A1A3A1B4A19F
:1051400089A39AA3ABA3BCA385A196A1A7A1B0A54F
:105150008DA39EA3AFA3B8A781A592A5A3A5B4A52F
:1051600089A79AA7ABA7BCA785A596A5A7A5B0A90F
:105170008DA79EA7AFA7B8AB81A992A9A3A9B4A9EF
:1051800089AB9AABABABBCABDF91CF911F910F91C9
:105190000895CF93DF93EC0107960E941C19CE016E
:1051A0000196DF91CF910C941C19CF93DF93CDB76B
:1051B000DEB7C655D1090FB6F894DEBF0FBECDBF1E
:1051C000789484B5826084BD84B5816084BD85B5E2
:1051D000826085BD85B5816085BD80916E008160EE
:1051E00080936E0010928100809181008260809394
:1051F0008100809181008160809381008091800096
:105200008160809380008091B10084608093B100C0
:105210008091B00081608093B000809191008260A5
:1052200080939100809191008160809391008091A2
:1052300090008160809390008091A10082608093B3
:10524000A1008091A10081608093A1008091A000C5
:1052500081608093A0008091210182608093210170
:1052600080912101816080932101809120018160E2
:105270008093200180917A00846080937A008091ED
:105280007A00826080937A0080917A0081608093B6
:105290007A0080917A00806880937A001092C10031
:1052A0001EE161E0812F0E94941C61E0812F0E9429
:1052B000C21C1F5F1232A9F7E091F41BF091F51B9D
:1052C00082E08083E091F01BF091F11B1082E0916D
:1052D000F21BF091F31B80E180831092FC1BE091A4
:1052E000F81BF091F91B86E08083E091F61BF091AA
:1052F000F71B808180618083E091F61BF091F71BA2
:10530000808188608083E091F61BF091F71B80819B
:1053100080688083E091F61BF091F71B80818F7D80
:10532000808381E095E064DE84E195E061DE81E8E0
:105330009CE19093981C8093971CA7DC81E89CE1EA
:10534000A4DC60E080E00E94DC1680E496E09093AC
:105350009B1C80939A1C6091D41C81E89CE1A7DB84
:1053600060E081E89CE1DAD881E89CE144DB41E03F
:105370006091D41C81E89CE1A4DB81E89CE186D8A3
:10538000182F682F6F76606180E00E94DC1663E062
:105390008EEF0E94DC16612F80E00E94DC1665E033
:1053A00070E080E090E00E94E41D612F616A80E07F
:1053B0000E94DC1610E020E030E040E050E0612F79
:1053C00084ED9CE10E94CA1F1F5F1031A1F788E3A2
:1053D00095E00EDE81E695E00BDE60ED77E080E0A3
:1053E00090E00E94E41D61E080E30E94C21C60E046
:1053F0008DE20E94C21C06DE8C0184E895E0F8DD97
:1054000061E08DE00E94C21C0130110509F087C0E7
:1054100087E995E0EDDD6DE070E08CE69DE10E94AE
:10542000C7206AE570E08CE69DE10E9444208EED85
:1054300095E0DEDDE4E1EE2EF12C809170020E9419
:10544000C51D8C01C2978F3E924008F05AC0B8012A
:10545000012E000C880B990B0E94F94020E030E0EF
:1054600048E851E40E9482429B01AC0160E078EA86
:105470008AEA95E40E94E74220E030E040E050E410
:105480000E94824220E030E040E251E40E94584114
:105490000E944F436B0160E573E1CE01C6960E9406
:1054A000AE19BE016A5C7F4FCE0101960E942119A0
:1054B00062E070E0CE0101960E94751766E176E029
:1054C0000E94A917B8010E94751762E276E00E9457
:1054D000A917B6010E947517BDDDCE0101960E9485
:1054E0001C19CE01C6960E941C1968EE73E080E07C
:1054F00090E00E94E41D31E0E31AF10809F09DCF2D
:105500000EC080916B1B811105C077EEC72E73E032
:10551000D72EC1CFC8010E944B106C01BCCF0E9496
:105520005E108DE296E064DD85E496E061DD60E08A
:1055300070E082E00E94FE1C60E070E083E00E9468
:10554000FE1C61E08AE10E94C21C61E08BE10E94C6
:10555000C21C61E08EE10E94C21C61E08EE10E94EB
:10556000941CC5DB8C0181E596E041DDC80133DD8B
:1055700084E796E03DDD65E876E0CE0101960E9485
:10558000AE1969E876E0CE01C6960E94AE199E017A
:105590002F5F3F4FAE014A5C5F4F68E288E79DE1B5
:1055A0000E943418182FCE01C6960E941C19CE01F5
:1055B00001960E941C1911110AC085E996E018DDB8
:1055C00064E670E080E090E00E94E41DD4CF89EBB7
:1055D00096E00EDD68E77DE1CE0101966FDDCE013C
:1055E00001960E942919CE010196D3DD65ED76E082
:1055F000CE0101960E94AE1969ED76E0CE01C69605
:105600000E94AE199E012F5F3F4FAE014A5C5F4F73
:1056100069E28DEA9DE10E943418182FCE01C696EA
:105620000E941C19CE0101960E941C1911110AC07A
:1056300081EE96E0DDDC64E670E080E090E00E94C0
:10564000E41DD4CF81E097E0D3DC6DEA7DE1CE01AB
:10565000019634DDCE0101960E942919CE010196F2
:1056600098DD6AE0C62E66E1D62EA12CB12CE12C85
:10567000F12C89E197E0BBDC6AE070E0C70198DCBF
:1056800089EE92E1B4DC00E010E0C501800F911FCB
:105690000E940F4290E0F801EE0FFF1FEC0DFD1D80
:1056A000918380836AE070E083DC84E390E19FDC97
:1056B0000F5F1F4F0B30110541F717DC4FEFE41A56
:1056C000F40A5BE0A50EB11C66E1C60ED11C7AE0BF
:1056D000E716F10471F681E89CE1D7DA6AE081E827
:1056E0009CE1E5D981E090E0EADB81E89CE183D9A7
:1056F00064EF71E080E090E00E94E41D8BE297E0AF
:1057000077DC0E94D4169091171B8091181B981774
:1057100041F081E89CE10E9446229093EF1580932E
:10572000EE1583E697E063DC62E070E08091EE15B1
:105730009091EF153DDC8EE697E059DC9091171BB8
:105740008091181B981751F081E89CE10E94462235
:105750006AE070E02DDC84E390E1EFCFC6DB8CE7FC
:1057600097E046DC6AE081E89CE1A1D982E090E024
:10577000A6DB81E89CE13FD980EA97E039DC61E073
:105780008CE20E94C21C61E08EE20E94C21C109258
:10579000B61A61E08CE20E94941C61E080E30E94F2
:1057A000941C61E08EE20E94941C1092F0151092FD
:1057B000F1151092F2151092F31562E083E10E9448
:1057C000C21C85EF91E090930902809308028091BA
:1057D00069008F7C806180936900EA9A8DEB97E085
:1057E00007DC80ED97E004DC0E941C1E6093B91A70
:1057F0007093BA1A8093BB1A9093BC1A8091B71A0F
:105800009091B81A01969093B81A8093B71A809124
:10581000621B9091631B892B09F442C70091951973
:10582000109196198091671B9091681B80179107C2
:1058300044F564ED77E0CE0101960E94AE19BE01F9
:105840006F5F7F4F81E00E94C219CE0101960E94D6
:105850001C198EEE97E0CBDB6AE070E08091951921
:1058600090919619A5DB8DE198E0C1DB6AE070E0CC
:105870008091671B9091681B9BDB84E398E00C94FC
:10588000A534C0900016D0900116E0900216F0905A
:105890000316C114D104E104F10439F48091691BA9
:1058A00090916A1B892B11F54AC00E941C1EDC01D5
:1058B000CB018C199D09AE09BF09813A9F40A10512
:1058C000B10560F364E37DE0CE0101960E94AE195C
:1058D000BE016F5F7F4F81E00E94C219CE01019629
:1058E0000E941C1984E59DE00C94A5340E941C1EA6
:1058F000C090B01AD090B11AE090B21AF090B31ADA
:10590000DC01CB018C199D09AE09BF09B801680FF4
:10591000791F709396196093951980916B1B88235A
:1059200041F08FE498E063DB80919519909196198E
:1059300052DB809174039091750397FF22C00E94FF
:105940001C1E6093B01A7093B11A8093B21A909390
:10595000B31A80918F19909190199093AF1A8093F8
:10596000AE1A8B30910589F58FEF9FEF90938E19CA
:1059700080938D198AE090E09093AF1A8093AE1ACD
:1059800030C08091951990919619853F9140BCF255
:105990008091911990919219A0919319B0919419B5
:1059A000892B8A2B8B2B59F664E97DE0CE01019679
:1059B0000E94AE19BE016F5F7F4F80E00E94C21946
:1059C000CE0101960E941C196BC6019651F481E02C
:1059D00090E090938E1980938D191092AF1A1092C7
:1059E000AE1A80918C19811113C08DEA9DE10E943D
:1059F000011588E79DE10E9401158091621B90913D
:105A0000631B099720916B1B029708F09CC37CC114
:105A100042ED442E49E1542E8EEA9AE1F20127EE3E
:105A200033E0358B248B76968E179F07D1F734E0C1
:105A3000232E312CE12CF12C8091460390914703C9
:105A4000E816F9060CF0C5C042E859E128965FAFA8
:105A50004EAF28970CE112E0B701660F771F2C9626
:105A60007FAF6EAF2C9722ED622E29E1722EC12CF2
:105A7000D12C2896AEADBFAD28978D912896BFAF9B
:105A8000AEAF2897882309F489C0F30184899589EA
:105A9000C3970CF483C0D80156968C91882329F0C3
:105AA0008090AE1A9090AF1A02C0812C912C9092E7
:105AB000CD198092CC19F801808D0E94C51D2496C5
:105AC0009FAF8EAF24972C96EEADFFAD2C97E60DD1
:105AD000F71D9183808361E070E080E090E00E9498
